{
  "_format": "hh-sol-artifact-1",
  "contractName": "CtfChallenge2",
  "sourceName": "contracts/CtfChallenge2.sol",
  "abi": [
    {
      "inputs": [],
      "stateMutability": "nonpayable",
      "type": "constructor"
    },
    {
      "inputs": [
        {
          "internalType": "address",
          "name": "owner",
          "type": "address"
        }
      ],
      "name": "OwnableInvalidOwner",
      "type": "error"
    },
    {
      "inputs": [
        {
          "internalType": "address",
          "name": "account",
          "type": "address"
        }
      ],
      "name": "OwnableUnauthorizedAccount",
      "type": "error"
    },
    {
      "anonymous": false,
      "inputs": [
        {
          "indexed": true,
          "internalType": "address",
          "name": "previousOwner",
          "type": "address"
        },
        {
          "indexed": true,
          "internalType": "address",
          "name": "newOwner",
          "type": "address"
        }
      ],
      "name": "OwnershipTransferred",
      "type": "event"
    },
    {
      "inputs": [
        {
          "internalType": "address",
          "name": "target",
          "type": "address"
        }
      ],
      "name": "indirectCall",
      "outputs": [],
      "stateMutability": "nonpayable",
      "type": "function"
    },
    {
      "inputs": [],
      "name": "owner",
      "outputs": [
        {
          "internalType": "address",
          "name": "",
          "type": "address"
        }
      ],
      "stateMutability": "view",
      "type": "function"
    },
    {
      "inputs": [],
      "name": "renounceOwnership",
      "outputs": [],
      "stateMutability": "nonpayable",
      "type": "function"
    },
    {
      "inputs": [
        {
          "internalType": "address",
          "name": "newOwner",
          "type": "address"
        }
      ],
      "name": "transferOwnership",
      "outputs": [],
      "stateMutability": "nonpayable",
      "type": "function"
    }
  ],
  "bytecode": "0x608060405234801561001057600080fd5b5033600073ffffffffffffffffffffffffffffffffffffffff168173ffffffffffffffffffffffffffffffffffffffff16036100845760006040517f1e4fbdf700000000000000000000000000000000000000000000000000000000815260040161007b919061019e565b60405180910390fd5b6100938161009960201b60201c565b506101b9565b60008060009054906101000a900473ffffffffffffffffffffffffffffffffffffffff169050816000806101000a81548173ffffffffffffffffffffffffffffffffffffffff021916908373ffffffffffffffffffffffffffffffffffffffff1602179055508173ffffffffffffffffffffffffffffffffffffffff168173ffffffffffffffffffffffffffffffffffffffff167f8be0079c531659141344cd1fd0a4f28419497f9722a3daafe3b4186f6b6457e060405160405180910390a35050565b600073ffffffffffffffffffffffffffffffffffffffff82169050919050565b60006101888261015d565b9050919050565b6101988161017d565b82525050565b60006020820190506101b3600083018461018f565b92915050565b610422806101c86000396000f3fe608060405234801561001057600080fd5b506004361061004c5760003560e01c80636ee6199f14610051578063715018a61461006d5780638da5cb5b14610077578063f2fde38b14610095575b600080fd5b61006b60048036038101906100669190610395565b6100b1565b005b61007561011c565b005b61007f610130565b60405161008c91906103d1565b60405180910390f35b6100af60048036038101906100aa9190610395565b610159565b005b6100b96101df565b8073ffffffffffffffffffffffffffffffffffffffff166382cb05c66040518163ffffffff1660e01b8152600401600060405180830381600087803b15801561010157600080fd5b505af1158015610115573d6000803e3d6000fd5b5050505050565b6101246101df565b61012e6000610266565b565b60008060009054906101000a900473ffffffffffffffffffffffffffffffffffffffff16905090565b6101616101df565b600073ffffffffffffffffffffffffffffffffffffffff168173ffffffffffffffffffffffffffffffffffffffff16036101d35760006040517f1e4fbdf70000000000000000000000000000000000000000000000000000000081526004016101ca91906103d1565b60405180910390fd5b6101dc81610266565b50565b6101e761032a565b73ffffffffffffffffffffffffffffffffffffffff16610205610130565b73ffffffffffffffffffffffffffffffffffffffff16146102645761022861032a565b6040517f118cdaa700000000000000000000000000000000000000000000000000000000815260040161025b91906103d1565b60405180910390fd5b565b60008060009054906101000a900473ffffffffffffffffffffffffffffffffffffffff169050816000806101000a81548173ffffffffffffffffffffffffffffffffffffffff021916908373ffffffffffffffffffffffffffffffffffffffff1602179055508173ffffffffffffffffffffffffffffffffffffffff168173ffffffffffffffffffffffffffffffffffffffff167f8be0079c531659141344cd1fd0a4f28419497f9722a3daafe3b4186f6b6457e060405160405180910390a35050565b600033905090565b600080fd5b600073ffffffffffffffffffffffffffffffffffffffff82169050919050565b600061036282610337565b9050919050565b61037281610357565b811461037d57600080fd5b50565b60008135905061038f81610369565b92915050565b6000602082840312156103ab576103aa610332565b5b60006103b984828501610380565b91505092915050565b6103cb81610357565b82525050565b60006020820190506103e660008301846103c2565b9291505056fea2646970667358221220f5348b753442be450129087b7a707bd74a3137133c2f61b87958c83332df846b64736f6c634300081c0033",
  "linkReferences": {},
  "deployedLinkReferences": {}
}