{"contracts/CtfChallenge9.sol":{"CtfChallenge9":{"abi":[{"inputs":[{"internalType":"bytes32","name":"_password","type":"bytes32"},{"internalType":"uint256","name":"_count","type":"uint256"}],"stateMutability":"nonpayable","type":"constructor"},{"anonymous":false,"inputs":[{"indexed":false,"internalType":"bytes32","name":"password","type":"bytes32"}],"name":"newPasswordGenerated","type":"event"},{"inputs":[],"name":"count","outputs":[{"internalType":"uint256","name":"","type":"uint256"}],"stateMutability":"view","type":"function"},{"inputs":[],"name":"generateNewPassword","outputs":[],"stateMutability":"nonpayable","type":"function"},{"inputs":[],"name":"password","outputs":[{"internalType":"bytes32","name":"","type":"bytes32"}],"stateMutability":"view","type":"function"}],"devdoc":{"kind":"dev","methods":{},"version":1},"evm":{"bytecode":{"linkReferences":{},"object":"608060405234801561001057600080fd5b506040516103b93803806103b9833981810160405281019061003291906100b8565b816000819055508060018190555050506100f8565b600080fd5b6000819050919050565b61005f8161004c565b811461006a57600080fd5b50565b60008151905061007c81610056565b92915050565b6000819050919050565b61009581610082565b81146100a057600080fd5b50565b6000815190506100b28161008c565b92915050565b600080604083850312156100cf576100ce610047565b5b60006100dd8582860161006d565b92505060206100ee858286016100a3565b9150509250929050565b6102b2806101076000396000f3fe608060405234801561001057600080fd5b50600436106100415760003560e01c806306661abd14610046578063224b610b14610064578063eca8cc2c14610082575b600080fd5b61004e61008c565b60405161005b9190610128565b60405180910390f35b61006c610092565b604051610079919061015c565b60405180910390f35b61008a610098565b005b60015481565b60005481565b6000600860206001546100ab91906101a6565b601f6100b79190610206565b6100c1919061023a565b60ff901b60001b1990506000816000541690507f8b4d1865cca596fe1320d6ea9d269d32b93eb36a77d1913637ffca48a5ddcde981604051610103919061015c565b60405180910390a15050565b6000819050919050565b6101228161010f565b82525050565b600060208201905061013d6000830184610119565b92915050565b6000819050919050565b61015681610143565b82525050565b6000602082019050610171600083018461014d565b92915050565b7f4e487b7100000000000000000000000000000000000000000000000000000000600052601260045260246000fd5b60006101b18261010f565b91506101bc8361010f565b9250826101cc576101cb610177565b5b828206905092915050565b7f4e487b7100000000000000000000000000000000000000000000000000000000600052601160045260246000fd5b60006102118261010f565b915061021c8361010f565b9250828203905081811115610234576102336101d7565b5b92915050565b60006102458261010f565b91506102508361010f565b925082820261025e8161010f565b91508282048414831517610275576102746101d7565b5b509291505056fea26469706673582212200bb4f9fbf548baafb0ddb637680f9ed55de35f5e048cd6fcc3855adaa372954164736f6c634300081c0033","opcodes":"PUSH1 0x80 PUSH1 0x40 MSTORE CALLVALUE DUP1 ISZERO PUSH2 0x10 JUMPI PUSH1 0x0 DUP1 REVERT JUMPDEST POP PUSH1 0x40 MLOAD PUSH2 0x3B9 CODESIZE SUB DUP1 PUSH2 0x3B9 DUP4 CODECOPY DUP2 DUP2 ADD PUSH1 0x40 MSTORE DUP2 ADD SWAP1 PUSH2 0x32 SWAP2 SWAP1 PUSH2 0xB8 JUMP JUMPDEST DUP2 PUSH1 0x0 DUP2 SWAP1 SSTORE POP DUP1 PUSH1 0x1 DUP2 SWAP1 SSTORE POP POP POP PUSH2 0xF8 JUMP JUMPDEST PUSH1 0x0 DUP1 REVERT JUMPDEST PUSH1 0x0 DUP2 SWAP1 POP SWAP2 SWAP1 POP JUMP JUMPDEST PUSH2 0x5F DUP2 PUSH2 0x4C JUMP JUMPDEST DUP2 EQ PUSH2 0x6A JUMPI PUSH1 0x0 DUP1 REVERT JUMPDEST POP JUMP JUMPDEST PUSH1 0x0 DUP2 MLOAD SWAP1 POP PUSH2 0x7C DUP2 PUSH2 0x56 JUMP JUMPDEST SWAP3 SWAP2 POP POP JUMP JUMPDEST PUSH1 0x0 DUP2 SWAP1 POP SWAP2 SWAP1 POP JUMP JUMPDEST PUSH2 0x95 DUP2 PUSH2 0x82 JUMP JUMPDEST DUP2 EQ PUSH2 0xA0 JUMPI PUSH1 0x0 DUP1 REVERT JUMPDEST POP JUMP JUMPDEST PUSH1 0x0 DUP2 MLOAD SWAP1 POP PUSH2 0xB2 DUP2 PUSH2 0x8C JUMP JUMPDEST SWAP3 SWAP2 POP POP JUMP JUMPDEST PUSH1 0x0 DUP1 PUSH1 0x40 DUP4 DUP6 SUB SLT ISZERO PUSH2 0xCF JUMPI PUSH2 0xCE PUSH2 0x47 JUMP JUMPDEST JUMPDEST PUSH1 0x0 PUSH2 0xDD DUP6 DUP3 DUP7 ADD PUSH2 0x6D JUMP JUMPDEST SWAP3 POP POP PUSH1 0x20 PUSH2 0xEE DUP6 DUP3 DUP7 ADD PUSH2 0xA3 JUMP JUMPDEST SWAP2 POP POP SWAP3 POP SWAP3 SWAP1 POP JUMP JUMPDEST PUSH2 0x2B2 DUP1 PUSH2 0x107 PUSH1 0x0 CODECOPY PUSH1 0x0 RETURN INVALID PUSH1 0x80 PUSH1 0x40 MSTORE CALLVALUE DUP1 ISZERO PUSH2 0x10 JUMPI PUSH1 0x0 DUP1 REVERT JUMPDEST POP PUSH1 0x4 CALLDATASIZE LT PUSH2 0x41 JUMPI PUSH1 0x0 CALLDATALOAD PUSH1 0xE0 SHR DUP1 PUSH4 0x6661ABD EQ PUSH2 0x46 JUMPI DUP1 PUSH4 0x224B610B EQ PUSH2 0x64 JUMPI DUP1 PUSH4 0xECA8CC2C EQ PUSH2 0x82 JUMPI JUMPDEST PUSH1 0x0 DUP1 REVERT JUMPDEST PUSH2 0x4E PUSH2 0x8C JUMP JUMPDEST PUSH1 0x40 MLOAD PUSH2 0x5B SWAP2 SWAP1 PUSH2 0x128 JUMP JUMPDEST PUSH1 0x40 MLOAD DUP1 SWAP2 SUB SWAP1 RETURN JUMPDEST PUSH2 0x6C PUSH2 0x92 JUMP JUMPDEST PUSH1 0x40 MLOAD PUSH2 0x79 SWAP2 SWAP1 PUSH2 0x15C JUMP JUMPDEST PUSH1 0x40 MLOAD DUP1 SWAP2 SUB SWAP1 RETURN JUMPDEST PUSH2 0x8A PUSH2 0x98 JUMP JUMPDEST STOP JUMPDEST PUSH1 0x1 SLOAD DUP2 JUMP JUMPDEST PUSH1 0x0 SLOAD DUP2 JUMP JUMPDEST PUSH1 0x0 PUSH1 0x8 PUSH1 0x20 PUSH1 0x1 SLOAD PUSH2 0xAB SWAP2 SWAP1 PUSH2 0x1A6 JUMP JUMPDEST PUSH1 0x1F PUSH2 0xB7 SWAP2 SWAP1 PUSH2 0x206 JUMP JUMPDEST PUSH2 0xC1 SWAP2 SWAP1 PUSH2 0x23A JUMP JUMPDEST PUSH1 0xFF SWAP1 SHL PUSH1 0x0 SHL NOT SWAP1 POP PUSH1 0x0 DUP2 PUSH1 0x0 SLOAD AND SWAP1 POP PUSH32 0x8B4D1865CCA596FE1320D6EA9D269D32B93EB36A77D1913637FFCA48A5DDCDE9 DUP2 PUSH1 0x40 MLOAD PUSH2 0x103 SWAP2 SWAP1 PUSH2 0x15C JUMP JUMPDEST PUSH1 0x40 MLOAD DUP1 SWAP2 SUB SWAP1 LOG1 POP POP JUMP JUMPDEST PUSH1 0x0 DUP2 SWAP1 POP SWAP2 SWAP1 POP JUMP JUMPDEST PUSH2 0x122 DUP2 PUSH2 0x10F JUMP JUMPDEST DUP3 MSTORE POP POP JUMP JUMPDEST PUSH1 0x0 PUSH1 0x20 DUP3 ADD SWAP1 POP PUSH2 0x13D PUSH1 0x0 DUP4 ADD DUP5 PUSH2 0x119 JUMP JUMPDEST SWAP3 SWAP2 POP POP JUMP JUMPDEST PUSH1 0x0 DUP2 SWAP1 POP SWAP2 SWAP1 POP JUMP JUMPDEST PUSH2 0x156 DUP2 PUSH2 0x143 JUMP JUMPDEST DUP3 MSTORE POP POP JUMP JUMPDEST PUSH1 0x0 PUSH1 0x20 DUP3 ADD SWAP1 POP PUSH2 0x171 PUSH1 0x0 DUP4 ADD DUP5 PUSH2 0x14D JUMP JUMPDEST SWAP3 SWAP2 POP POP JUMP JUMPDEST PUSH32 0x4E487B7100000000000000000000000000000000000000000000000000000000 PUSH1 0x0 MSTORE PUSH1 0x12 PUSH1 0x4 MSTORE PUSH1 0x24 PUSH1 0x0 REVERT JUMPDEST PUSH1 0x0 PUSH2 0x1B1 DUP3 PUSH2 0x10F JUMP JUMPDEST SWAP2 POP PUSH2 0x1BC DUP4 PUSH2 0x10F JUMP JUMPDEST SWAP3 POP DUP3 PUSH2 0x1CC JUMPI PUSH2 0x1CB PUSH2 0x177 JUMP JUMPDEST JUMPDEST DUP3 DUP3 MOD SWAP1 POP SWAP3 SWAP2 POP POP JUMP JUMPDEST PUSH32 0x4E487B7100000000000000000000000000000000000000000000000000000000 PUSH1 0x0 MSTORE PUSH1 0x11 PUSH1 0x4 MSTORE PUSH1 0x24 PUSH1 0x0 REVERT JUMPDEST PUSH1 0x0 PUSH2 0x211 DUP3 PUSH2 0x10F JUMP JUMPDEST SWAP2 POP PUSH2 0x21C DUP4 PUSH2 0x10F JUMP JUMPDEST SWAP3 POP DUP3 DUP3 SUB SWAP1 POP DUP2 DUP2 GT ISZERO PUSH2 0x234 JUMPI PUSH2 0x233 PUSH2 0x1D7 JUMP JUMPDEST JUMPDEST SWAP3 SWAP2 POP POP JUMP JUMPDEST PUSH1 0x0 PUSH2 0x245 DUP3 PUSH2 0x10F JUMP JUMPDEST SWAP2 POP PUSH2 0x250 DUP4 PUSH2 0x10F JUMP JUMPDEST SWAP3 POP DUP3 DUP3 MUL PUSH2 0x25E DUP2 PUSH2 0x10F JUMP JUMPDEST SWAP2 POP DUP3 DUP3 DIV DUP5 EQ DUP4 ISZERO OR PUSH2 0x275 JUMPI PUSH2 0x274 PUSH2 0x1D7 JUMP JUMPDEST JUMPDEST POP SWAP3 SWAP2 POP POP JUMP INVALID LOG2 PUSH5 0x6970667358 0x22 SLT KECCAK256 SIGNEXTEND 0xB4 0xF9 0xFB CREATE2 BASEFEE 0xBA 0xAF 0xB0 0xDD 0xB6 CALLDATACOPY PUSH9 0xF9ED55DE35F5E048C 0xD6 0xFC 0xC3 DUP6 GAS 0xDA LOG3 PUSH19 0x954164736F6C634300081C0033000000000000 "},"gasEstimates":{"creation":{"codeDepositCost":"138000","executionCost":"infinite","totalCost":"infinite"},"external":{"count()":"2407","generateNewPassword()":"infinite","password()":"2429"}},"methodIdentifiers":{"count()":"06661abd","generateNewPassword()":"eca8cc2c","password()":"224b610b"}},"storageLayout":{"storage":[{"astId":7,"contract":"contracts/CtfChallenge9.sol:CtfChallenge9","label":"password","offset":0,"slot":"0","type":"t_bytes32"},{"astId":9,"contract":"contracts/CtfChallenge9.sol:CtfChallenge9","label":"count","offset":0,"slot":"1","type":"t_uint256"}],"types":{"t_bytes32":{"encoding":"inplace","label":"bytes32","numberOfBytes":"32"},"t_uint256":{"encoding":"inplace","label":"uint256","numberOfBytes":"32"}}},"userdoc":{"kind":"user","methods":{},"version":1}}}}