{"contracts/CtfChallenge9.sol":{"CtfChallenge9":{"abi":[{"inputs":[],"stateMutability":"nonpayable","type":"constructor"},{"anonymous":false,"inputs":[{"indexed":false,"internalType":"bytes32","name":"password","type":"bytes32"}],"name":"newPasswordGenerated","type":"event"},{"inputs":[{"internalType":"bytes32","name":"password","type":"bytes32"},{"internalType":"uint256","name":"count","type":"uint256"}],"name":"generateNewPassword","outputs":[],"stateMutability":"nonpayable","type":"function"}],"devdoc":{"kind":"dev","methods":{},"version":1},"evm":{"bytecode":{"linkReferences":{},"object":"6080604052348015600f57600080fd5b506102d78061001f6000396000f3fe608060405234801561001057600080fd5b506004361061002b5760003560e01c80637a44ed2214610030575b600080fd5b61004a60048036038101906100459190610132565b61004c565b005b6000600860208361005d91906101a1565b601f6100699190610201565b6100739190610235565b60ff901b60001b199050600081841690507f8b4d1865cca596fe1320d6ea9d269d32b93eb36a77d1913637ffca48a5ddcde9816040516100b39190610286565b60405180910390a150505050565b600080fd5b6000819050919050565b6100d9816100c6565b81146100e457600080fd5b50565b6000813590506100f6816100d0565b92915050565b6000819050919050565b61010f816100fc565b811461011a57600080fd5b50565b60008135905061012c81610106565b92915050565b60008060408385031215610149576101486100c1565b5b6000610157858286016100e7565b92505060206101688582860161011d565b9150509250929050565b7f4e487b7100000000000000000000000000000000000000000000000000000000600052601260045260246000fd5b60006101ac826100fc565b91506101b7836100fc565b9250826101c7576101c6610172565b5b828206905092915050565b7f4e487b7100000000000000000000000000000000000000000000000000000000600052601160045260246000fd5b600061020c826100fc565b9150610217836100fc565b925082820390508181111561022f5761022e6101d2565b5b92915050565b6000610240826100fc565b915061024b836100fc565b9250828202610259816100fc565b915082820484148315176102705761026f6101d2565b5b5092915050565b610280816100c6565b82525050565b600060208201905061029b6000830184610277565b9291505056fea2646970667358221220bd8a388ef1435d7814671a59484067d47d6071e99eb13be62857d37d7fc5feee64736f6c634300081c0033","opcodes":"PUSH1 0x80 PUSH1 0x40 MSTORE CALLVALUE DUP1 ISZERO PUSH1 0xF JUMPI PUSH1 0x0 DUP1 REVERT JUMPDEST POP PUSH2 0x2D7 DUP1 PUSH2 0x1F PUSH1 0x0 CODECOPY PUSH1 0x0 RETURN INVALID PUSH1 0x80 PUSH1 0x40 MSTORE CALLVALUE DUP1 ISZERO PUSH2 0x10 JUMPI PUSH1 0x0 DUP1 REVERT JUMPDEST POP PUSH1 0x4 CALLDATASIZE LT PUSH2 0x2B JUMPI PUSH1 0x0 CALLDATALOAD PUSH1 0xE0 SHR DUP1 PUSH4 0x7A44ED22 EQ PUSH2 0x30 JUMPI JUMPDEST PUSH1 0x0 DUP1 REVERT JUMPDEST PUSH2 0x4A PUSH1 0x4 DUP1 CALLDATASIZE SUB DUP2 ADD SWAP1 PUSH2 0x45 SWAP2 SWAP1 PUSH2 0x132 JUMP JUMPDEST PUSH2 0x4C JUMP JUMPDEST STOP JUMPDEST PUSH1 0x0 PUSH1 0x8 PUSH1 0x20 DUP4 PUSH2 0x5D SWAP2 SWAP1 PUSH2 0x1A1 JUMP JUMPDEST PUSH1 0x1F PUSH2 0x69 SWAP2 SWAP1 PUSH2 0x201 JUMP JUMPDEST PUSH2 0x73 SWAP2 SWAP1 PUSH2 0x235 JUMP JUMPDEST PUSH1 0xFF SWAP1 SHL PUSH1 0x0 SHL NOT SWAP1 POP PUSH1 0x0 DUP2 DUP5 AND SWAP1 POP PUSH32 0x8B4D1865CCA596FE1320D6EA9D269D32B93EB36A77D1913637FFCA48A5DDCDE9 DUP2 PUSH1 0x40 MLOAD PUSH2 0xB3 SWAP2 SWAP1 PUSH2 0x286 JUMP JUMPDEST PUSH1 0x40 MLOAD DUP1 SWAP2 SUB SWAP1 LOG1 POP POP POP POP JUMP JUMPDEST PUSH1 0x0 DUP1 REVERT JUMPDEST PUSH1 0x0 DUP2 SWAP1 POP SWAP2 SWAP1 POP JUMP JUMPDEST PUSH2 0xD9 DUP2 PUSH2 0xC6 JUMP JUMPDEST DUP2 EQ PUSH2 0xE4 JUMPI PUSH1 0x0 DUP1 REVERT JUMPDEST POP JUMP JUMPDEST PUSH1 0x0 DUP2 CALLDATALOAD SWAP1 POP PUSH2 0xF6 DUP2 PUSH2 0xD0 JUMP JUMPDEST SWAP3 SWAP2 POP POP JUMP JUMPDEST PUSH1 0x0 DUP2 SWAP1 POP SWAP2 SWAP1 POP JUMP JUMPDEST PUSH2 0x10F DUP2 PUSH2 0xFC JUMP JUMPDEST DUP2 EQ PUSH2 0x11A JUMPI PUSH1 0x0 DUP1 REVERT JUMPDEST POP JUMP JUMPDEST PUSH1 0x0 DUP2 CALLDATALOAD SWAP1 POP PUSH2 0x12C DUP2 PUSH2 0x106 JUMP JUMPDEST SWAP3 SWAP2 POP POP JUMP JUMPDEST PUSH1 0x0 DUP1 PUSH1 0x40 DUP4 DUP6 SUB SLT ISZERO PUSH2 0x149 JUMPI PUSH2 0x148 PUSH2 0xC1 JUMP JUMPDEST JUMPDEST PUSH1 0x0 PUSH2 0x157 DUP6 DUP3 DUP7 ADD PUSH2 0xE7 JUMP JUMPDEST SWAP3 POP POP PUSH1 0x20 PUSH2 0x168 DUP6 DUP3 DUP7 ADD PUSH2 0x11D JUMP JUMPDEST SWAP2 POP POP SWAP3 POP SWAP3 SWAP1 POP JUMP JUMPDEST PUSH32 0x4E487B7100000000000000000000000000000000000000000000000000000000 PUSH1 0x0 MSTORE PUSH1 0x12 PUSH1 0x4 MSTORE PUSH1 0x24 PUSH1 0x0 REVERT JUMPDEST PUSH1 0x0 PUSH2 0x1AC DUP3 PUSH2 0xFC JUMP JUMPDEST SWAP2 POP PUSH2 0x1B7 DUP4 PUSH2 0xFC JUMP JUMPDEST SWAP3 POP DUP3 PUSH2 0x1C7 JUMPI PUSH2 0x1C6 PUSH2 0x172 JUMP JUMPDEST JUMPDEST DUP3 DUP3 MOD SWAP1 POP SWAP3 SWAP2 POP POP JUMP JUMPDEST PUSH32 0x4E487B7100000000000000000000000000000000000000000000000000000000 PUSH1 0x0 MSTORE PUSH1 0x11 PUSH1 0x4 MSTORE PUSH1 0x24 PUSH1 0x0 REVERT JUMPDEST PUSH1 0x0 PUSH2 0x20C DUP3 PUSH2 0xFC JUMP JUMPDEST SWAP2 POP PUSH2 0x217 DUP4 PUSH2 0xFC JUMP JUMPDEST SWAP3 POP DUP3 DUP3 SUB SWAP1 POP DUP2 DUP2 GT ISZERO PUSH2 0x22F JUMPI PUSH2 0x22E PUSH2 0x1D2 JUMP JUMPDEST JUMPDEST SWAP3 SWAP2 POP POP JUMP JUMPDEST PUSH1 0x0 PUSH2 0x240 DUP3 PUSH2 0xFC JUMP JUMPDEST SWAP2 POP PUSH2 0x24B DUP4 PUSH2 0xFC JUMP JUMPDEST SWAP3 POP DUP3 DUP3 MUL PUSH2 0x259 DUP2 PUSH2 0xFC JUMP JUMPDEST SWAP2 POP DUP3 DUP3 DIV DUP5 EQ DUP4 ISZERO OR PUSH2 0x270 JUMPI PUSH2 0x26F PUSH2 0x1D2 JUMP JUMPDEST JUMPDEST POP SWAP3 SWAP2 POP POP JUMP JUMPDEST PUSH2 0x280 DUP2 PUSH2 0xC6 JUMP JUMPDEST DUP3 MSTORE POP POP JUMP JUMPDEST PUSH1 0x0 PUSH1 0x20 DUP3 ADD SWAP1 POP PUSH2 0x29B PUSH1 0x0 DUP4 ADD DUP5 PUSH2 0x277 JUMP JUMPDEST SWAP3 SWAP2 POP POP JUMP INVALID LOG2 PUSH5 0x6970667358 0x22 SLT KECCAK256 0xBD DUP11 CODESIZE DUP15 CALL NUMBER TSTORE PUSH25 0x14671A59484067D47D6071E99EB13BE62857D37D7FC5FEEE64 PUSH20 0x6F6C634300081C00330000000000000000000000 "},"gasEstimates":{"creation":{"codeDepositCost":"145400","executionCost":"190","totalCost":"145590"},"external":{"generateNewPassword(bytes32,uint256)":"infinite"}},"methodIdentifiers":{"generateNewPassword(bytes32,uint256)":"7a44ed22"}},"storageLayout":{"storage":[],"types":null},"userdoc":{"kind":"user","methods":{},"version":1}}}}