{
  "address": "0x0fb94ef4B1745198eB28Ac3528385E71479613bf",
  "abi": [
    {
      "inputs": [],
      "stateMutability": "nonpayable",
      "type": "constructor"
    },
    {
      "anonymous": false,
      "inputs": [
        {
          "indexed": false,
          "internalType": "uint8",
          "name": "sLast",
          "type": "uint8"
        }
      ],
      "name": "senderLastGenerated",
      "type": "event"
    },
    {
      "inputs": [],
      "name": "generateNewSenderLast",
      "outputs": [],
      "stateMutability": "nonpayable",
      "type": "function"
    }
  ],
  "transactionHash": "0xc9b248a5d82f728433cb938fb7c08e02ef6a2114b0ad0ee2420f30573f67e713",
  "args": [],
  "numDeployments": 1,
  "solcInputHash": "0d3816aed80d690a370feb05668250e6",
  "bytecode": "0x6080604052348015600f57600080fd5b506102288061001f6000396000f3fe608060405234801561001057600080fd5b506004361061002b5760003560e01c8063eb3efa2414610030575b600080fd5b61003861003a565b005b60003360405160200161004d9190610171565b60405160208183030381529060405260138151811061006f5761006e61018c565b5b602001015160f81c60f81b60f81c905060006015821690507edc9a3e27384d9471999cc06f2d34d87818773d0e34db7e464194746d286b20826040516100b591906101d7565b60405180910390a17edc9a3e27384d9471999cc06f2d34d87818773d0e34db7e464194746d286b20816040516100eb91906101d7565b60405180910390a15050565b600073ffffffffffffffffffffffffffffffffffffffff82169050919050565b6000610122826100f7565b9050919050565b60008160601b9050919050565b600061014182610129565b9050919050565b600061015382610136565b9050919050565b61016b61016682610117565b610148565b82525050565b600061017d828461015a565b60148201915081905092915050565b7f4e487b7100000000000000000000000000000000000000000000000000000000600052603260045260246000fd5b600060ff82169050919050565b6101d1816101bb565b82525050565b60006020820190506101ec60008301846101c8565b9291505056fea26469706673582212206f60acd3cb70180b6001c5571c1c72880dd2ed79d5f8d88fe81057c0e693793264736f6c634300081c0033",
  "devdoc": {
    "kind": "dev",
    "methods": {},
    "version": 1
  },
  "userdoc": {
    "kind": "user",
    "methods": {},
    "version": 1
  },
  "storageLayout": {
    "storage": [],
    "types": null
  }
}