{
  "address": "0x867AD441F134fDB7b8182036568a080777c44a28",
  "abi": [
    {
      "inputs": [
        {
          "internalType": "address",
          "name": "_challengeAddress",
          "type": "address"
        }
      ],
      "stateMutability": "nonpayable",
      "type": "constructor"
    },
    {
      "inputs": [],
      "name": "challenge",
      "outputs": [
        {
          "internalType": "contract IChallenge11",
          "name": "",
          "type": "address"
        }
      ],
      "stateMutability": "view",
      "type": "function"
    },
    {
      "inputs": [],
      "name": "mintFlag",
      "outputs": [],
      "stateMutability": "nonpayable",
      "type": "function"
    }
  ],
  "transactionHash": "0x2630a68c0168be559636811894919c53cc14c5bc7e3ca5ed8234d71e7c67440d",
  "args": [
    "0x67392ea0A56075239988B8E1E96663DAC167eF54"
  ],
  "numDeployments": 1,
  "solcInputHash": "436a91659ccdaa8e217dc73adc641e66",
  "bytecode": "0x608060405234801561001057600080fd5b506040516102f03803806102f0833981810160405281019061003291906100db565b806000806101000a81548173ffffffffffffffffffffffffffffffffffffffff021916908373ffffffffffffffffffffffffffffffffffffffff16021790555050610108565b600080fd5b600073ffffffffffffffffffffffffffffffffffffffff82169050919050565b60006100a88261007d565b9050919050565b6100b88161009d565b81146100c357600080fd5b50565b6000815190506100d5816100af565b92915050565b6000602082840312156100f1576100f0610078565b5b60006100ff848285016100c6565b91505092915050565b6101d9806101176000396000f3fe608060405234801561001057600080fd5b50600436106100365760003560e01c8063d2ef73981461003b578063e00d023f14610059575b600080fd5b610043610063565b6040516100509190610188565b60405180910390f35b610061610087565b005b60008054906101000a900473ffffffffffffffffffffffffffffffffffffffff1681565b60008054906101000a900473ffffffffffffffffffffffffffffffffffffffff1673ffffffffffffffffffffffffffffffffffffffff1663e00d023f6040518163ffffffff1660e01b8152600401600060405180830381600087803b1580156100ef57600080fd5b505af1158015610103573d6000803e3d6000fd5b50505050565b600073ffffffffffffffffffffffffffffffffffffffff82169050919050565b6000819050919050565b600061014e61014961014484610109565b610129565b610109565b9050919050565b600061016082610133565b9050919050565b600061017282610155565b9050919050565b61018281610167565b82525050565b600060208201905061019d6000830184610179565b9291505056fea264697066735822122057777233ff26ab022f0103eeefaad7d625d1bbdcdefe52977ec47f4df019483064736f6c634300081c0033",
  "devdoc": {
    "kind": "dev",
    "methods": {},
    "version": 1
  },
  "userdoc": {
    "kind": "user",
    "methods": {},
    "version": 1
  },
  "storageLayout": {
    "storage": [
      {
        "astId": 5422,
        "contract": "contracts/CtfChallenge11.sol:CtfChallenge11",
        "label": "challenge",
        "offset": 0,
        "slot": "0",
        "type": "t_contract(IChallenge11)5448"
      }
    ],
    "types": {
      "t_contract(IChallenge11)5448": {
        "encoding": "inplace",
        "label": "contract IChallenge11",
        "numberOfBytes": "20"
      }
    }
  }
}