{
  "_format": "hh-sol-artifact-1",
  "contractName": "CtfChallenge9",
  "sourceName": "contracts/CtfChallenge9.sol",
  "abi": [
    {
      "inputs": [],
      "stateMutability": "nonpayable",
      "type": "constructor"
    },
    {
      "anonymous": false,
      "inputs": [
        {
          "indexed": false,
          "internalType": "bytes32",
          "name": "password",
          "type": "bytes32"
        }
      ],
      "name": "newPasswordGenerated",
      "type": "event"
    },
    {
      "inputs": [
        {
          "internalType": "bytes32",
          "name": "password",
          "type": "bytes32"
        },
        {
          "internalType": "uint256",
          "name": "count",
          "type": "uint256"
        }
      ],
      "name": "generateNewPassword",
      "outputs": [],
      "stateMutability": "nonpayable",
      "type": "function"
    }
  ],
  "bytecode": "0x6080604052348015600f57600080fd5b506102d78061001f6000396000f3fe608060405234801561001057600080fd5b506004361061002b5760003560e01c80637a44ed2214610030575b600080fd5b61004a60048036038101906100459190610132565b61004c565b005b6000600860208361005d91906101a1565b601f6100699190610201565b6100739190610235565b60ff901b60001b199050600081841690507f8b4d1865cca596fe1320d6ea9d269d32b93eb36a77d1913637ffca48a5ddcde9816040516100b39190610286565b60405180910390a150505050565b600080fd5b6000819050919050565b6100d9816100c6565b81146100e457600080fd5b50565b6000813590506100f6816100d0565b92915050565b6000819050919050565b61010f816100fc565b811461011a57600080fd5b50565b60008135905061012c81610106565b92915050565b60008060408385031215610149576101486100c1565b5b6000610157858286016100e7565b92505060206101688582860161011d565b9150509250929050565b7f4e487b7100000000000000000000000000000000000000000000000000000000600052601260045260246000fd5b60006101ac826100fc565b91506101b7836100fc565b9250826101c7576101c6610172565b5b828206905092915050565b7f4e487b7100000000000000000000000000000000000000000000000000000000600052601160045260246000fd5b600061020c826100fc565b9150610217836100fc565b925082820390508181111561022f5761022e6101d2565b5b92915050565b6000610240826100fc565b915061024b836100fc565b9250828202610259816100fc565b915082820484148315176102705761026f6101d2565b5b5092915050565b610280816100c6565b82525050565b600060208201905061029b6000830184610277565b9291505056fea2646970667358221220bd8a388ef1435d7814671a59484067d47d6071e99eb13be62857d37d7fc5feee64736f6c634300081c0033",
  "linkReferences": {},
  "deployedLinkReferences": {}
}